:100000000C947A000C9497000C9497000C94970031
:100010000C9497000C9497000C9497000C94970004
:100020000C9497000C9497000C9497000C949700F4
:100030000C9497000C9497000C9497000C949700E4
:100040000C9480020C9497000C9497000C949700E9
:100050000C9497000C9497000C9497000C949700C4
:100060000C9497000C949700C001D201D801E601CE
:10007000F0010A0210021A0228023E0244024E0255
:100080005C02FA03FF030C04110416041B04200491
:100090002504320437043C0441040000000025001C
:1000A00028002B000000000023002600290000008B
:1000B0000008000201000003040700000000000027
:1000C000000000000000240027002A0001020408AC
:1000D00010204080010204081020010204081020B2
:1000E00004040404040404040202020202020303DE
:1000F0000303030311241FBECFEFD8E0DEBFCDBF43
:1001000011E0A0E0B1E0E6EDFAE002C005900D924A
:10011000A232B107D9F721E0A2E2B1E001C01D92FD
:10012000A037B207E1F70E94CA020C9469050C944B
:100130000000833081F028F4813099F08230A1F002
:1001400008958730A9F08830B9F08430D1F48091D7
:1001500080008F7D03C0809180008F778093800026
:10016000089584B58F7702C084B58F7D84BD0895CE
:100170008091B0008F7703C08091B0008F7D809315
:10018000B0000895CF93DF93282F30E0F901E255B6
:10019000FF4F8491F901E453FF4FD491F901E052EC
:1001A000FF4FC491CC2391F081110E949900EC2F54
:1001B000F0E0EE0FFF1FEC55FF4FA591B491EC91CD
:1001C000ED2381E090E021F480E002C080E090E047
:1001D000DF91CF9108951F93CF93DF93282F30E0C5
:1001E000F901E255FF4F8491F901E453FF4FD49197
:1001F000F901E052FF4FC491CC23C9F0162F8111B1
:100200000E949900EC2FF0E0EE0FFF1FE656FF4F23
:10021000A591B4918FB7F894111105C09C91ED2F61
:10022000E095E92302C0EC91ED2BEC938FBFDF91B9
:10023000CF911F910895CF93DF9390E0FC01E45399
:10024000FF4F2491FC01E052FF4F8491882361F11C
:1002500090E0880F991FFC01EE53FF4FC591D49198
:10026000FC01E656FF4FA591B491611109C09FB7FB
:10027000F8948881209582238883EC912E230BC0EB
:10028000623061F49FB7F8943881822F8095832380
:100290008883EC912E2B2C939FBF06C08FB7F894C8
:1002A000E8812E2B28838FBFDF91CF9108953FB730
:1002B000F8948091230190912401A0912501B0919F
:1002C000260126B5A89B05C02F3F19F00196A11D58
:1002D000B11D3FBFBA2FA92F982F8827820F911DDC
:1002E000A11DB11DBC01CD0142E0660F771F881F23
:1002F000991F4A95D1F708958F929F92AF92BF921E
:10030000CF92DF92EF92FF926B017C010E94570126
:100310004B015C01C114D104E104F104F1F00E942D
:100320005701DC01CB0188199909AA09BB09883E4C
:100330009340A105B10570F321E0C21AD108E1088C
:10034000F10888EE880E83E0981EA11CB11CC11430
:10035000D104E104F10419F7DDCFFF90EF90DF90B5
:10036000CF90BF90AF909F908F90089590E08D3088
:10037000910508F0BDC0FC01EC5CFF4F0C946305D7
:1003800061E081E10E94EB0061E082E10E94EB000C
:1003900061E083E10E94EB0061E087E00E94EB00F6
:1003A00060E09BC060E081E10E94EB0061E005C07D
:1003B00061E081E10E94EB0060E082E10E94EB00DD
:1003C00061E083E10E94EB0061E017C061E081E140
:1003D0000E94EB0061E082E10E94EB0060E0F1CF5F
:1003E00061E081E10E94EB0061E082E10E94EB00AC
:1003F00061E083E10E94EB0060E087E00E94EB0097
:1004000060E08EE00E94EB0060E08FE00E94EB0075
:1004100061E06BC060E081E10E94EB0061E005C03B
:1004200061E081E10E94EB0060E082E10E94EB006C
:1004300061E009C061E081E10E94EB0061E082E1DE
:100440000E94EB0060E083E10E94EB0061E00DC0E0
:1004500061E081E10E94EB0061E082E10E94EB003B
:1004600061E083E10E94EB0060E087E00E94EB0026
:1004700060E08EE00E94EB0061E033C060E081E16B
:100480000E94EB0061E005C061E081E10E94EB00A9
:1004900060E082E10E94EB0061E009C061E081E17F
:1004A0000E94EB0061E082E10E94EB0060E083E1EA
:1004B0000E94EB0061E00DC061E081E10E94EB0071
:1004C00061E082E10E94EB0061E083E10E94EB00C9
:1004D00060E087E00E94EB0061E08EE00E94EB00AC
:1004E00060E08FE00E94EB0060E080E10C94EB00A4
:1004F00008958EBD00000DB407FEFDCF8EB50895A2
:100500001F920F920FB60F9211242F933F938F9348
:100510009F93AF93BF938091280190912901A0915F
:100520002A01B0912B013091220123E0230F2D37B6
:1005300020F40196A11DB11D05C026E8230F0296E7
:10054000A11DB11D209322018093280190932901C0
:10055000A0932A01B0932B01809123019091240153
:10056000A0912501B09126010196A11DB11D809396
:10057000230190932401A0932501B0932601BF91FC
:10058000AF919F918F913F912F910F900FBE0F9040
:100590001F901895CF93DF93CDB7DEB7A0970FB616
:1005A000F894DEBF0FBECDBF789484B5826084BD61
:1005B00084B5816084BD85B5826085BD85B5816067
:1005C00085BD80916E00816080936E0010928100E5
:1005D00080918100826080938100809181008160A0
:1005E0008093810080918000816080938000809161
:1005F000B10084608093B1008091B00081608093ED
:10060000B00080917A00846080937A0080917A00B3
:10061000826080937A0080917A00816080937A0072
:1006200080917A00806880937A001092C10061E026
:1006300081E10E941B0161E082E10E941B0161E0F7
:1006400083E10E941B0161E087E00E941B0161E0E1
:100650008EE00E941B0161E08FE00E941B0161E0BF
:1006600080E10E941B0161E081E10E94EB0061E0FA
:1006700082E10E94EB0061E083E10E94EB0061E017
:1006800087E00E94EB0060E08EE00E94EB0060E0FB
:100690008FE00E94EB0060E080E10E94EB0061E0EF
:1006A00082E00E941B0161E081E00E941B0161E089
:1006B00080E00E941B0160E083E00E941B0160E07B
:1006C00084E00E941B0160E085E00E941B0160E065
:1006D00086E00E941B0160E082E00E94EB0060E087
:1006E00081E00E94EB0060E080E00E94EB0061E0AE
:1006F00089E00E941B0161E08AE00E941B0161E029
:1007000089E00E94EB0061E08AE00E94EB001FB7E5
:10071000F89480912701811127C0EAEEF0E08491DE
:10072000E6EDF0E09491E82FF0E0EE0FFF1FEE53BE
:10073000FF4FA591B491EC91E92321F461E08AE0A7
:100740000E94EB0061E08AE00E941B018CB5806191
:100750008CBD8CB580648CBD61E08DE00E941B0176
:1007600061E08BE00E941B01809127018F5F8093E5
:1007700027011FBF61E088E00E941B0160E088E064
:100780000E94EB00A4E5EA2EA1E0FA2E00E010E0C2
:10079000C8010E944D058F3F21F4F701118210829C
:1007A00007C0C8010E944D0590E0F7019183808346
:1007B0000F5F1F4FF2E0EF0EF11C0D30110541F7F6
:1007C000E0E1CE2E8E010F5D1F4FF0E0EF2EF0E046
:1007D000FF2EA0900001B09001018A2D90E0FC0155
:1007E0003197EC30F10508F05AC0EF5BFF4F61E044
:1007F0000C94630580E00E94EB0083E004C080E07D
:100800000E94EB0084E00E94C20090934D0180930F
:100810004C0160E080E041C080E00E94EB0085E098
:10082000F2CF80E00E94EB0086E0EDCF81E00E94F5
:10083000EB0083E00EC081E00E94EB0084E009C081
:1008400081E00E94EB0085E004C081E00E94EB00A3
:1008500086E00E94C20090934D0180934C0160E0BD
:1008600081E01BC082E00E94EB0083E00EC082E0CA
:100870000E94EB0084E009C082E00E94EB0085E06A
:1008800004C082E00E94EB0086E00E94C2009093C8
:100890004D0180934C0160E082E00E94EB002FB795
:1008A000F8948091280190912901A0912A01B0919A
:1008B0002B012FBF409148015091490160914A019D
:1008C00070914B01841B950BA60BB70BBB24853F86
:1008D0009140A105B105D0F180914C0190914D015D
:1008E00020914601309147018217930779F1909347
:1008F000470180934601019749F5C501880F991F6B
:10090000FC01EC5AFE4F61E020813181232B09F07C
:1009100060E0FC01EC5AFE4F262F30E0318320834B
:10092000C5010E9455052FB7F89480912801909138
:100930002901A0912A01B0912B012FBF809348017A
:1009400090934901A0934A01B0934B01C501880FD0
:10095000991FFC01E45DFE4FDC01AC5ABE4F8D9146
:100960009C9191838083A0900001B0900101F501DA
:10097000EE0FFF1FEC5AFE4F80819181019711F419
:100980008A2D01C080E00E94B6018CE0A816B10457
:1009900029F4109201011092000107C09FEFA91ADB
:1009A000B90AB0920101A092000161E070E080E01C
:1009B00090E00E947C0160E089E00E94EB008DE005
:1009C0000E94790280E00E947902D82E80E00E9485
:1009D0007902B82E61E089E00E94EB008D2D90E055
:1009E000982F88278B0D911D9695879596958795BD
:1009F0009093530180935201109251011092500133
:100A00009595879590934F0180934E01E2E0F1E038
:100A1000DE0151968C2D01900D928A95E1F7E2E16D
:100A2000F1E0DE0111968C2D01900D928A95E1F78F
:100A3000FE0171963F01CE0101964C01F301A19098
:100A4000B1903F01F0E5AF1AFBEFBF0A60E08AE02A
:100A50000E94EB008B2D8F7080630E9479028A2D9B
:100A60000E94790261E08AE00E94EB00F40180813B
:100A7000F2E08F0E911C0E94B60160EA7FE080E0F8
:100A800090E00E947C0160167106C1F6E114F10449
:100A900009F49FCE0E9400009CCEF999FECF92BD32
:100AA00081BDF89A992780B50895262FF999FECF30
:100AB0001FBA92BD81BD20BD0FB6F894FA9AF99A7B
:100AC0000FBE01960895EE0FFF1F0590F491E02DE3
:060AD0000994F894FFCF29
:100AD60001000000320064007D00AF00E100130158
:100AE6002C01010003000500060008000A000C00A6
:020AF6000100FD
:00000001FF
